:020000040800F2
:10000000F80600200D020008550500084D050008FF
:1000100051050008B303000897060008000000001F
:10002000000000000000000000000000590500086A
:100030006104000800000000570500085B05000887
:1000400027020008270200082702000827020008EC
:1000500027020008270200082702000827020008DC
:10006000270200082702000829050008B903000834
:10007000E10300080904000835040008270200080D
:1000800027020008270200082702000827020008AC
:100090002702000827020008270200083B05000885
:1000A00027020008F90500082702000827020008B7
:1000B000810600082702000827020008270200081E
:1000C000270200082702000827020008270200086C
:1000D000270200082702000827020008270200085C
:1000E000650400082702000827020008000000003D
:1000F0000000000000000000000000000000000000
:10010000000000002702000827020008000000008D
:10011000270200082702000800000000000000007D
:10012000270200082702000827020008270200080B
:1001300000000000000000000000000000000000BF
:10014000000000000000000000000000270200087E
:10015000000000000000000027020008270200083D
:10016000000000000000000000000000270200085E
:1001700000F002F800F03AF80AA090E8000C82447F
:100180008344AAF10107DA4501D100F02FF8AFF25C
:10019000090EBAE80F0013F0010F18BFFB1A43F065
:1001A00001031847640A0000840A0000103A24BFC3
:1001B00078C878C1FAD8520724BF30C830C144BFCC
:1001C00004680C607047000000230024002500260E
:1001D000103A28BF78C1FBD8520728BF30C148BFAA
:1001E0000B6070471FB51FBD10B510BD00F0A8F81B
:1001F0001146FFF7F7FF00F0F4FB00F0C6F803B478
:10020000FFF7F2FF03BC00F0CDF80000094880477B
:1002100009480047FEE7FEE7FEE7FEE7FEE7FEE7E8
:10022000FEE7FEE7FEE7FEE704480549054A064B00
:10023000704700005D05000871010008F80000200B
:10024000F8060020F8020020F802002053EA020C11
:1002500000F069802DE9F04B4FF00006002B1FBF26
:10026000B3FA83F503FA05F424FA05F65E4012BFEB
:100270001643B2FA82F502FA05F4C5F120051EBF55
:1002800022FA05FC44EA0C04203556EA044C4FEAF5
:10029000144418BF641C4FF000084FF0000990424E
:1002A00071EB030C39D3002919BFB1FA81F701FAB8
:1002B00007F6B0FA80F700FA07F6C7F120071EBF6D
:1002C00020FA07FC46EA0C062037B6FBF4FCA7EB45
:1002D0000507103F07F01F0BCBF120060CFA0BFBB4
:1002E0002CFA06F644BFB3460026202FA4BF5E4674
:1002F0004FF0000B5BEA060C08BF4FF0010B19EB47
:100300000B09ABFB027C48EB0608C01B06FB02CCCA
:100310000BFB03CC71EB0C01C1E70B4602464146D7
:100320004846BDE8F08B13B54FF000004FF00001D8
:10033000AFF30080BDE81C407047704770477047BE
:10034000754600F02BF8AE4605006946534620F08E
:100350000700854618B020B5FFF766FFBDE82040CE
:100360004FF000064FF000074FF000084FF0000B71
:1003700021F00701AC46ACE8C009ACE8C009ACE824
:10038000C009ACE8C0098D46704710B50446AFF30C
:1003900000802046BDE81040FFF731BF004870479D
:1003A0009800002001491820ABBEFEE7260002009D
:1003B000704700BFFEE7000010B5022000F0E2FA2F
:1003C00048B1012004490870022000F0CBFA002156
:1003D000024800F0C1FA10BD7C0000200800024075
:1003E00010B5202000F0CEFA48B101200449087071
:1003F000202000F0B7FA0021024800F0ADFA10BD4D
:100400007D0000201C00024010B54FF4007000F089
:10041000B9FA48B1012005490870400200F0A2FA7B
:100420000021034800F098FA10BD00007E00002073
:100430003000024010B54FF4005000F0A3FA48B16C
:10044000012005490870400300F08CFA00210348A0
:1004500000F082FA10BD00007F000020440002403E
:100460007047000010B54FF4804000F0A7FAF8B1D3
:100470004FF4804000F09CFA2A48807828B900F0B8
:100480000DF90220274988701CE026488078012851
:1004900005D100F003F903202249887012E02148B9
:1004A0008078052805D100F0F9F802201D498870F0
:1004B00008E01C488078062804D100F0EFF80420FA
:1004C000184988704FF4004000F078FAF8B14FF402
:1004D000004000F06DFA1348C07828B900F0DEF84B
:1004E00002201049C8701CE00E48C078012805D1D0
:1004F00000F0D4F803200B49C87012E00948C07816
:10050000052805D100F0CAF802200649C87008E0A5
:100510000448C078062804D100F0C0F8042001493E
:10052000C87010BD8800002010B5102000F046FAF9
:1005300010B1102000F03CFA10BD10B5202000F0E2
:100540003DFA10B1202000F033FA10BD00BFFEE7E5
:1005500000BFFEE770477047704770472248C06988
:1005600020F0805000F180501F49C8611F4800787A
:1005700040F004001D49503981F850001A48C06904
:1005800020F080501849C8610846006820F001003A
:10059000401C086000BF14480068C0F340000028F9
:1005A000F9D01148406820F003000F49486000BFAF
:1005B0000D484068C0F381000028F9D10A4800685E
:1005C0000B490840084908600020486041F6107057
:1005D000C8624FF4801008634FF41F008860C8039E
:1005E000044908607047000000100240507000404D
:1005F000FFFFF2FE08ED00E010B501211E4800F0FB
:10060000F2FA002837D01D480088401C1B4908809A
:1006100008468078401C88700846C078401CC87026
:1006200008460088B0F57A7F07DB0846007920F09D
:100630000400001D0871002008801048807864289C
:1006400008DB0E48007920F00200801C0B4908717D
:10065000002088700948C0780A2808DB074800791C
:1006600020F00100401C054908710020C8700121DC
:10067000014800F0B5FA10BD002C014080000020B8
:1006800010B50121880700F0AEFA18B101218807E2
:1006900000F0A6FA10BD00BFFEE7000010B5002074
:1006A00007490871886000224FF48071054800F006
:1006B00093F900224FF40071024800F08DF910BD4B
:1006C00088000020000801400349496860F30711D1
:1006D000014A516070470000001002400349496818
:1006E00060F30A21014A5160704700000010024087
:1006F0000349496860F3CD21014A51607047000009
:1007000000100240012807D10749496D21F030014E
:100710003031054A516505E00349496D21F030014A
:10072000014A51657047000000100240052827D299
:10073000DFE800F0030A11181F00134A126861F382
:100740000002114B1A601CE00F4A126861F310425C
:100750000D4B1A6015E00C4A126861F318620A4BDF
:100760001A600EE0084A126A61F30002064B1A6230
:1007700007E0054A526A61F30002034B5A6200E047
:1007800000BF00BF704700000010024010B50146D6
:100790000020094B03EB1142126801F01F040123F2
:1007A000A3401A4001F01F040123A3409A4200D045
:1007B00000E0012010BD00000010024030B50246EC
:1007C0000020002372B9354C646824F48034334D22
:1007D0006C6033482C46246B24F0007404F10074E0
:1007E0002C6319E02D4C646824F4803404F58034C3
:1007F0002A4D6C60012A06D12A482C46646824F4EC
:1008000000346C6008E02648244C646824F400340A
:1008100004F50034214D6C60234CA04204D9234CD4
:10082000A04201D2002326E0214CA04204D9214C51
:10083000A04201D201231EE01F4CA04204D91F4C4C
:10084000A04201D2022316E01C4CA04204D91C4C49
:10085000A04201D203230EE01A4CA04204D91A4C44
:10086000A04201D2042306E0174CA04203D9174C42
:10087000A04200D20523094C646861F39544074DFA
:100880006C600D09054C646865F35E74034D6C6023
:100890002C46E46A63F31A64EC6230BD0010024037
:1008A00000093D0000127A0060823B00404B4C0082
:1008B00080584F00105E5F0094357700101B7F005A
:1008C00020BCBE00286BEE0030D73D01D8E9DC012A
:1008D0001648006820F00100401C1449086000BF61
:1008E00012480068C0F340000028F9D00F48406863
:1008F00020F003000D49486000BF0C484068C0F379
:1009000081000028F9D109480068094908400749D1
:1009100008600020486041F61070C8624FF48010F3
:1009200008634FF41F008860704700000010024009
:10093000FFFFF2FE0349496860F30101014A51607B
:10094000704700000010024002484068C0F3810078
:100950007047000000100240026861F3000202606C
:1009600070470000B0F1805F04D920F07041034A65
:10097000116001E002494860704700000404024031
:1009800000000240014600200022B1F1805F02D940
:10099000054B1A6801E0054B1A6802EA01030BB126
:1009A000012000E0002070470004024000000240E7
:1009B000014908607047000014040140014600200E
:1009C0000022044B1B6803EA01020AB1012000E087
:1009D00000207047140401400AB1016100E0416148
:1009E0007047052000F004F800F016F800BFFEE79D
:1009F00000BF00F00702064B19684FF6FF031940CD
:100A0000044B0B4343EA0221014B196000BF7047BE
:100A10000CED00E00000FA0510B5FFF759FF1420B7
:100A20001949086001210020FFF780FE00BF012066
:100A3000FFF7ACFE0128FAD123210020FFF7BEFE0C
:100A400001210220FFF772FE00BF1920FFF79EFE72
:100A50000128FAD10020FFF737FE0420FFF748FEF7
:100A60000420FFF73BFE0120FFF74CFE0220FFF7BA
:100A700061FF00BFFFF768FF0228FBD10020FFF7EE
:100A800041FE00F003F810BD002002402DE9FF5F99
:100A9000002400250026A146A246A346002003907C
:100AA00002900190FFF750FF0090009820B10128BC
:100AB00014D0022874D115E04348406DC0F34020A3
:100AC00040B14148006BC0F3406018B13F48404915
:100AD000086002E03F483E49086065E03D483C4907
:100AE000086061E038484068C0F300463648C06A94
:100AF000C00F20BB34484068C0F38344324840688C
:100B0000C0F341750DB90F2C03D12801401C0444DA
:100B100000E0A41C26B9304860432D4908603DE040
:100B200029484068C0F3404020B12B486043284921
:100B3000086033E027486043254908602EE02248DA
:100B4000C06AC0F3031003901F48C06AC0F30820B6
:100B500002901D48C06A00F00700019016B9DFF846
:100B600078B009E018484068C0F3404010B1DFF8A1
:100B700068B001E0DFF85CB00121019801FA00F0F3
:100B8000039900FB01FC0298ABFB00700146624632
:100B900000233846FFF75AFB0D49086004E0FFE7E1
:100BA0000C480B49086000BF00BF07484068C0F30D
:100BB00003190A4810F809A00548006820FA0AF04D
:100BC00003490860BDE8FF9F00100240006CDC0292
:100BD0000000002000127A0000093D00F80B000818
:100BE000CA43026170470246002013690B400BB1F3
:100BF000012000E00020704700000000000000001D
:100C00000102030406070809280C00080000002060
:100C100088000000AC010008B00C0008880000202B
:100C200070060000C801000800127A007573617236
:100C300074207472616E7366657220627920646DCF
:100C40006120696E746572727570743A2075736193
:100C5000727432202D3E2075736172743320757367
:100C6000696E6720646D61007573617274207472BF
:100C7000616E7366657220627920646D6120696EB1
:100C8000746572727570743A207573617274332072
:100C90002D3E20757361727432207573696E672002
:100CA000646D610000000000000000000000000012
:04000005080001717D
:00000001FF
